:020000040000FA
:020000000828CE
:10000800831207140710042883018B018C018316BF
:10001800003081008C01FF309F008312850186012A
:10002800870188018901101083168501F030860048
:1000380087010714880189010C148117831285012F
:1000480002308600051405100630B300B401B40B65
:100058002B28B30B2B280230860005140510083016
:100068008600051405100C30742001307420063009
:100078007420803074204D306520693065206330ED
:100088006520723065206F306520633065206830E8
:1000980065206930652070306520C03074200030DC
:1000A800B0009B20FF3903195D2865203008013E08
:1000B80054285D280C3074200130742006307420D8
:1000C8000800B6008320360E0F3986008510051506
:1000D8000514051036080F398600051405100800A8
:1000E800B6008320360E0F398600851005110514D9
:1000F800051036080F398600051405100800831608
:10010800FF30860083120511851405140510060EAC
:10011800F039B5000514051006080F39B504B51BEC
:10012800832885108316F030860083120800820722
:100138004D346934633472346F34633468346934E9
:100148007034203454346534633468346E346F3416
:0A0158006C346F34673479340034DE
:00000001FF
