:020000040000FA
:100000003401040000000000040100000A010000A7
:1000100010010000160100001C0100002201000078
:10002000280100002E0100003C0400003C040000F8
:100030003C0400003C0400003C0400003C040000C0
:100040003C0400003C0400003C0400003C040000B0
:100050003C040000900300003C0400003C0400004D
:100060003C0400003C0400003C0400003C04000090
:100070003C0400003C0400003C0400003C04000080
:100080003C0400003C0400003C0400003C04000070
:100090003C0400003C0400003C0400003C04000060
:1000A0003C0400003C0400003C0400003C04000050
:1000B0003C0400003C0400003C0400003C04000040
:1000C0003C0400003C0400003C0400003C04000030
:1000D0003C0400003C0400003C0400003C04000020
:1000E0003C0400003C0400003C0400003C04000010
:1000F0003C0400003C0400003C0400003C04000000
:10010800040100000A0100001001000016010000AF
:100118001C01000022010000280100002E0100003F
:100128003C0400003C0400003C0400003C040000C7
:100138003C0400003C0400003C0400003C040000B7
:100148003C0400003C0400003C0400009003000054
:100158003C0400003C0400003C0400003C04000097
:100168003C0400003C0400003C0400003C04000087
:100178003C0400003C0400003C0400003C04000077
:100188003C0400003C0400003C0400003C04000067
:100198003C0400003C0400003C0400003C04000057
:1001A8003C0400003C0400003C0400003C04000047
:1001B8003C0400003C0400003C0400003C04000037
:1001C8003C0400003C0400003C0400003C04000027
:1001D8003C0400003C0400003C0400003C04000017
:1001E8003C0400003C0400003C0400003C04000007
:1001F8003C0400003C040000000000000000000077
:1002080000000000FEFF370000400600000000006C
:10021800FEFF37000040060000000000FEFF370028
:100228000040060000000000FEFF37000040060006
:1002380000000000FEFF370000400600000000003C
:10024800FEFF37000040060000000000FEFF3700F8
:100258000040060000000000FEFF370000400600D6
:10026800000000000F982000819F200001018800F5
:100278004400A8004480A8000085200081032000D5
:10028800C108DE00018009000018EB00018520008C
:10029800F03F20008008980080402000A0089800C7
:1002A800003020009008980000042000E00098002A
:1002B80061862000302A200080089800C041200074
:1002C800A008980000302000900898000004200042
:1002D800E00098000190200010272000800098007E
:1002E80030752000A000980000502000B000980051
:1002F800000820009000980000002000C00098002E
:10030800B00E2000D000980000102000E0009800F7
:10031800E190200010272000800098003075200010
:10032800A000980000502000B000980000082000AD
:100338009000980000002000C0009800B00E200037
:10034800D000980000102000E0009800F0FF2F0077
:100358001044880000002600E043880001002000C7
:10036800A1168800E1FF2F00911688001021EF00E8
:100378000621EF0000002000100C8800000C880007
:1003880040072400600888000000280080088800D2
:1003980030002000200C8800813920004118880096
:1003A80001F02F00111888004158280051188800C2
:1003B80051082000611888000623EF00310A280040
:1003C80001188800110120004120880041012C00FB
:1003D8005120880031042100612088000104200098
:1003E80091208800A120880001002400C1208800F5
:1003F80001042000712088001024EF0081002000F3
:10040800B120880011012000E120880041012C0062
:10041800F120880031042100012188000104200016
:1004280031218800412188001100240061218800C1
:1004380001042000112188002424EF0081002000FD
:100448005121880001002000912188003122880074
:10045800419C2000112088000140280001208800CC
:10046800DC22EF0001FF2F00C11688008560A9007B
:100478009560A800C202020000000000DC02020031
:10048800000000008008E200FAFF320006030200C4
:10049800000000008608E200F6FF3A008208E20049
:1004A80005003200500020008408E300F1FF350009
:1004B8006803020000000000F3438000025320009C
:1004C8000218E10001003C008201780000042000CD
:1004D800419C20000100B800110009004388D800A1
:1004E80000017800110009008380D80002407800DC
:1004F8000080FD000B852000FB009000C208DD0095
:100508000101B800D30598006B862000FB0090001D
:10051800C208DD000101B800D30598000000EB0017
:100528000B8520009B009000010178000010E60078
:100538008100EA00439C20000388E60083007800DD
:100548000010E6008100EA00910598006B86200003
:100558009B009000010178000010E6008100EA008D
:10056800439C20000388E600830078000010E60022
:100578008100EA0091059800BEFF37002044800002
:10058800010027000180E600214488008608E20077
:100598000600320020448000E14380000100E100B1
:1005A800020039008628A9008428EF000000060010
:1005B800F0438000C14C20000100E1000A00350032
:1005C80001C020000100E10007003C0001532000A9
:1005D8000100E10002003C008208E20002003A004B
:1005E80080A8EF00000006008008E2000400320046
:1005F8004A030200000000008028EF0082A8EF00F4
:10060800000006008001EB000285200082009000B7
:100618000308E6008100EA00720090004200DE0054
:10062800C2009000120890004280DE000008E1003D
:100638000D003C0062862000820090000308E6005E
:100648008100EA00720090004200DE00C2009000C3
:10065800120890004280DE000008E10002003C0021
:100668008608A900000006008608E200FDFF3A009F
:100678004A030200000000008608A8008628A80097
:100688008428EF0082A8EF00F6FF37000E00FC0078
:100698000000EB00028520007001980050019800CE
:1006A8001001980062009000702088006286200087
:1006B80070019800500198001001980062009000A5
:1006C80010218800000006008208E20011003200B4
:1006D8000285200082089000720090001000B0008F
:1006E8000100E10002003500010078008228EF00D7
:1006F80070019800628620008208900072009000C5
:100708001000B0000180E600010078007001980038
:100718008428EF000000060000A0FE008560A90004
:1007280040188000004001000603A9000A003700B5
:100738000623A9000D0037000643A9001000370062
:100748000663A900130037000683A90013003700C9
:1007580006A3A900130037002083BF00233220001E
:10076800088520000A902000100037002483BF006D
:100778006332200068862000EA9020000B003700D2
:100788008428EC002883BF004200DD00F043880085
:10079800340037000000000032003700000000007D
:1007A80030003700000000002E0037000001EB0089
:1007B800420498009808900081005000020034001C
:1007C8004104980012049800130078004100DD00ED
:1007D800F80090000080500088009000010150004F
:1007E80000049800A800900022049800010151001C
:1007F80032049800881F7800462CC300462CC60097
:10080800462CC600462CC600462CC600466CC600C0
:10081800462CC600462CC6007800C800200180007F
:100828004F04780026E0AB00010032000000EB0026
:10083800A8099000B0019800C80090000100E000ED
:1008480008003A00880090004F88DE000100E000B0
:100858000100340010002000980090008100400042
:10086800110498000080FE0000400600000000000F
:040878000000FE007E
:00000001FF
